:100000000C9461000C947E000C947E000C947E0095
:100010000C947E000C947E000C947E000C947E0068
:100020000C947E000C947E000C947E000C947E0058
:100030000C947E000C947E000C947E000C947E0048
:100040000C94FF010C947E000C947E000C947E00B6
:100050000C947E000C947E000C947E000C947E0028
:100060000C947E000C947E00000000002400270009
:100070002A0000000000250028002B0000000000DE
:1000800023002600290004040404040404040202DA
:100090000202020203030303030301020408102007
:1000A0004080010204081020010204081020000012
:1000B0000008000201000003040700000000000027
:1000C000000011241FBECFEFD8E0DEBFCDBF11E08E
:1000D000A0E0B1E0EAE8FBE002C005900D92A43791
:1000E000B107D9F721E0A4E7B1E001C01D92AC3A15
:1000F000B207E1F70E9449020C94C3050C9400007A
:10010000833081F028F4813099F08230A9F008958D
:100110008730A9F08830C9F08430B1F48091800034
:100120008F7D03C0809180008F7780938000089539
:1001300084B58F7784BD089584B58F7DFBCF809182
:10014000B0008F778093B00008958091B0008F7DCC
:10015000F9CFCF93DF93282F30E0F901E255FF4F1D
:100160008491F901E656FF4FD491F901EA57FF4F08
:10017000C491CC23A1F081110E948000EC2FF0E00B
:10018000EE0FFF1FE458FF4FA591B491EC91ED23C2
:1001900081E090E009F480E0DF91CF91089580E064
:1001A00090E0FACF1F93CF93DF93282F30E0F9012F
:1001B000E255FF4F8491F901E656FF4FD491F901C2
:1001C000EA57FF4FC491CC23A9F0162F81110E944A
:1001D0008000EC2FF0E0EE0FFF1FEE58FF4FA591CF
:1001E000B4918FB7F894EC91111108C0D095DE232B
:1001F000DC938FBFDF91CF911F910895DE2BF8CF55
:10020000CF93DF9390E0FC01E656FF4F24918A578D
:100210009F4FFC0184918823D1F090E0880F991FB3
:10022000FC01E859FF4FA591B491FC01EE58FF4F36
:10023000C591D49161110EC09FB7F8948C91E22FB3
:10024000E0958E238C932881E223E8839FBFDF9182
:10025000CF9108958FB7F894EC91E22BEC938FBF78
:10026000F6CF3FB7F89480917B0190917C01A091EB
:100270007D01B0917E0126B5A89B05C02F3F19F0E6
:100280000196A11DB11D3FBFBA2FA92F982F882716
:10029000BC01CD01620F711D811D911D42E0660FF1
:1002A000771F881F991F4A95D1F708952FB7F894A3
:1002B00060917701709178018091790190917A0134
:1002C0002FBF089580918001909181018C33910519
:1002D0007CF02091740130917501CC97909381014D
:1002E000809380012F5F3F4F3093750120937401FD
:1002F0008091740190917501CC9724F01092750152
:100300001092740180918001909181012AE030E087
:10031000B9010E94AF0580939F016093A001809175
:10032000740190917501B9010E94AF058093A101FC
:100330006093A20108954F925F926F927F928F9285
:100340009F92AF92BF92CF92DF92EF92FF920F9364
:100350001F93CF93DF934C018FE9E82E81E0F82EB5
:10036000D0E0C0E097E0A92E8C169D0681F1BC2E4E
:1003700029E0B20EF701C08060E08B2D0E94D20010
:10038000CA9C6001112410E000E0F601E00FF11FAB
:10039000EC5FFE4F608182E0800F0E94D2000F5F11
:1003A0001F4F0730110589F70E9431012B013C01D5
:1003B0000E9431016419750986099709683E7340E6
:1003C00081059105A8F361E08B2D0E94D200219652
:1003D0002FEFE21AF20AC430D10531F6DF91CF9146
:1003E0001F910F91FF90EF90DF90CF90BF90AF9053
:1003F0009F908F907F906F905F904F9008951F9285
:100400000F920FB60F9211242F933F938F939F93C8
:10041000AF93BF938091770190917801A09179017A
:10042000B0917A013091760123E0230F2D3758F5F2
:100430000196A11DB11D20937601809377019093C1
:100440007801A0937901B0937A0180917B0190911A
:100450007C01A0917D01B0917E010196A11DB11D8D
:1004600080937B0190937C01A0937D01B0937E01EA
:10047000BF91AF919F918F913F912F910F900FBEA0
:100480000F901F90189526E8230F0296A11DB11D0D
:10049000D2CFCF93DF931F92CDB7DEB7789484B5D8
:1004A000826084BD84B5816084BD85B5826085BD70
:1004B00085B5816085BD80916E00816080936E00FE
:1004C00010928100809181008260809381008091F0
:1004D00081008160809381008091800081608093A1
:1004E00080008091B10084608093B1008091B00061
:1004F00081608093B00080917A00846080937A005C
:1005000080917A00826080937A0080917A00816085
:1005100080937A0080917A00806880937A001092AC
:10052000C10061E082E00E94000161E083E00E947E
:10053000000161E084E00E94000161E085E00E942A
:10054000000161E086E00E94000161E087E00E9416
:10055000000161E088E00E94000161E089E00E9402
:10056000000161E08AE00E94000161E08BE00E94EE
:10057000000161E08CE00E94000161E089E00E94DE
:10058000D20061E08AE00E94D20061E08BE00E942C
:10059000D20061E08CE00E94D20060E082E10E9423
:1005A000000160E083E10E94000161E08DE00E94B3
:1005B00000012224239495E0392E88248394912CE1
:1005C0000E945601009182011091830120918401C3
:1005D000309185016B017C01C01AD10AE20AF30A4D
:1005E00097018601083E134021053105D8F020917E
:1005F0008001309181012F5F3F4F30938101209323
:1006000080016093820170938301809384019093B1
:10061000850160917F0151E0652760937F018DE046
:100620000E94D20080910301863009F4BDC1B0F46C
:10063000843009F40EC2853009F491C08091AB0179
:10064000809303018FEF9FEF0E949B0160E070E0B9
:10065000672B09F4B5CF0E940000B2CF873009F4B0
:1006600023C1883059F70E9456016B017C0182E159
:100670000E94A9008C0171E07983892B09F4198209
:1006800083E10E94A9005C0180919B0190919C01F3
:10069000A0919D01B0919E0126013701481A590A87
:1006A0006A0A7B0A85E6481651046104710408F45D
:1006B000C8C180919A0190E00E949B0199EC491673
:1006C00051046104710450F00E94560160939B0133
:1006D00070939C0180939D0190939E0101151105DB
:1006E00009F025C2AB28B1F010929A010E94620174
:1006F000012B41F080919A018F5F843008F0A6C1F0
:1007000080939A01C0929601D0929701E09298014D
:10071000F09299018091960190919701A091980192
:10072000B0919901C81AD90AEA0AFB0A28EBC21645
:100730002BE0D206E104F10450F037E03093AB0136
:1007400048E0409302011092950110929401C980F3
:100750008C2D90E090939301809392016FCF0E9433
:10076000620182E10E94A9009C0181E0211531050E
:1007700009F480E0232BC9F120919201309193017B
:10078000232B99F5909293018092920101E010E061
:1007900083E10E94A90041E0009709F440E0892B21
:1007A00061F12091A9013091AA01232B31F590929A
:1007B000AA018092A901EE24E394F12C809100011A
:1007C000882381F1012B09F5EF28F9F40E945601E5
:1007D00060938601709387018093880190938901CB
:1007E000209200013092AB0129CF90E090939301C9
:1007F0008093920110E000E0CBCF50E05093AA012B
:100800004093A901F12CE12CD9CF0E9456016093AD
:1008100086017093870180938801909389011092DB
:100820000001E0CF0115110519F4E114F10471F292
:100830000E94560140908601509087016090880187
:10084000709089016419750986099709683B7B4096
:100850008105910510F10E94560160938601709305
:1008600087018093880190938901209200010E9462
:10087000560160938A0170938B0180938C01909351
:100880008D0110920101109295011092940137E0B0
:100890003093AB0130920201D1CE012B09F0CECEC4
:1008A000EF2809F0CBCE92CF0E94560100918A0129
:1008B00010918B0120918C0130918D01601B710B87
:1008C000820B930B643F71408105910508F1809183
:1008D000010181111DC0209201010E945601609307
:1008E0008A0170938B0180938C0190938D0180918C
:1008F00094019091950101969093950180939401B4
:10090000029731F4809102018830B9F53092AB0141
:100910000E945601C0908A01D0908B01E0908C011A
:10092000F0908D016C197D098E099F09643F71401B
:100930008105910520F480910101811130C00E9450
:1009400056016C197D098E099F09643F714081052C
:10095000910508F473CE80910101882309F46ECECD
:10096000109201010E94560160938A0170938B01DD
:1009700080938C0190938D0161CE853049F658E0CB
:100980005093AB010E94560160939B0170939C01B0
:1009900080939D0190939E0110929A01B9CF8FEFA1
:1009A0009FEF0E949B014ACE0E9456016B017C0181
:1009B00082E10E94A9008C01BB24B394892B09F425
:1009C000B12C83E10E94A90021E0009709F420E006
:1009D000892B11F4012B91F1809192019091930157
:1009E000019761F580918E0190918F01A091900106
:1009F000B0919101B701A601481B590B6A0B7B0B03
:100A0000DB01CA01883B9B40A105B10558F0C092AB
:100A10008E01D0928F01E0929001F092910167E0F7
:100A20006093AB018B2D90E09093930180939201A2
:100A300030E03093AA012093A90100CE3092AB019F
:100A4000F1CF8FEF9FEF0E949B0148CE10929A0149
:100A500059CE0E9456016B017C0183E10E94A900DE
:100A600021E0009709F420E0892B09F45DC0809112
:100A7000A9019091AA01019709F056C08091A501A2
:100A80009091A601A091A701B091A801B701A6017C
:100A9000481B590B6A0B7B0BDB01CA01843691059D
:100AA000A105B10588F08091A3019091A401C092A5
:100AB000A501D092A601E092A701F092A8010197AA
:100AC0009093A4018093A30130E03093AA01209376
:100AD000A9012091A3013091A401C9016AE070E04D
:100AE0000E949B0580939F01CB016AE070E00E9409
:100AF0009B058093A001C90164E670E00E949B05FC
:100B0000CB016AE070E00E949B058093A101C901BE
:100B100068EE73E00E949B05CB016AE070E00E94E2
:100B20009B058093A2018ACD1092AB01CDCFAB285B
:100B300009F4E0CDD9CDAA1BBB1B51E107C0AA1F08
:100B4000BB1FA617B70710F0A61BB70B881F991F6E
:100B50005A95A9F780959095BC01CD01089597FB12
:100B6000072E16F4009407D077FD09D00E949B054C
:100B700007FC05D03EF4909581959F4F08957095A0
:0A0B800061957F4F0895F894FFCFB0
:100B8A000101050501010101010100000101000047
:100B9A000000010100010100010101010100000141
:100BAA000001010000010101000101000101010031
:100BBA00010101010101010100000000010101011F
:100BCA00010101010101000001010101010001010E
:100BDA000100000101010101010000010101000001
:100BEA0001010101000101000001010101010000F0
:040BFA0000010101F4
:00000001FF
